:020000040800F2
:1000000000000320194D0008C5300008D330000857
:10001000D9300008DF300008E5300008000000009B
:10002000000000000000000000000000EB300008AD
:10003000F930000800000000073100081531000801
:100040006D4D00086D4D00086D4D00082131000810
:100050006D4D00086D4D00082D3100083B31000842
:100060006D4D00086D4D0008493100086D4D0008C8
:100070006D4D00086D4D0008593100086D4D0008A8
:100080006D4D00086D4D00086D4D00086D4D000868
:100090006D4D00086D4D00086D4D00086D4D000858
:1000A0006D4D00086D4D00086D4D00086D4D000848
:1000B0006D4D00086D4D00086D4D00086D4D000838
:1000C0006D4D00086D4D00086D4D00086D4D000828
:1000D0006D310008813100086D4D00086D4D00083C
:1000E0006D4D00086D4D00086D4D00086D4D000808
:1000F00095310008A1310008AD3100086D4D0008B0
:100100006D4D00086D4D00086D4D00086D4D0008E7
:100110006D4D00086D4D00086D4D00086D4D0008D7
:100120006D4D00086D4D0008B93100086D4D000897
:0C0130006D4D00086D4D00086D4D00087D
:1001400010B5054C237833B9044B13B10448AFF311
:1001500000800123237010BD740200200000000005
:10016000F801010808B5034B1BB103490348AFF37D
:10017000008008BD0000000078020020F80101089E
:1001800010F8012B11F8013B012A28BF9A42F7D041
:10019000D01A7047034613F8012B002AFBD1181A16
:1001A000013870470000000000000000000000005F
:1001B00001F0FF01102A2BDB10F0070F08D010F818
:1001C000013B013A8B422DD010F0070F42B3F6D11C
:1001D000F0B441EA012141EA014122F007047FF035
:1001E00000070023F0E80256083C85EA010586EA8C
:1001F000010685FA47F5A3FA87F586FA47F6A5FAC8
:1002000087F68EB9EED1F0BC01F0FF0102F00702D3
:1002100032B110F8013B013A83EA010313B1F8D17E
:100220000020704701387047002D06BF354603385F
:10023000073815F0010F07D1013015F4807F02BF98
:10024000013015F4C03F0130F0BC0138704700BFE9
:1002500081F0004102E000BF83F0004330B54FEA77
:1002600041044FEA430594EA050F08BF90EA020FE4
:100270001FBF54EA000C55EA020C7FEA645C7FEA77
:10028000655C00F0E2804FEA5454D4EB5555B8BF9A
:100290006D420CDD2C4480EA020281EA030382EA0B
:1002A000000083EA010180EA020281EA0303362D9D
:1002B00088BF30BD11F0004F4FEA01314FF4801C70
:1002C0004CEA113102D0404261EB410113F0004F82
:1002D0004FEA03334CEA133302D0524263EB430339
:1002E00094EA050F00F0A780A4F10104D5F1200ED7
:1002F0000DDB02FA0EFC22FA05F2801841F1000132
:1003000003FA0EF2801843FA05F359410EE0A5F105
:1003100020050EF1200E012A03FA0EFC28BF4CF036
:10032000020C43FA05F3C01851EBE37101F00045EC
:1003300007D54FF0000EDCF1000C7EEB00006EEBF9
:100340000101B1F5801F1BD3B1F5001F0CD3490883
:100350005FEA30004FEA3C0C04F101044FEA4452DA
:1003600012F5800F80F09A80BCF1004F08BF5FEA61
:10037000500C50F1000041EB045141EA050130BD41
:100380005FEA4C0C404141EB0101013C28BFB1F553
:10039000801FE9D291F0000F04BF01460020B1FA9E
:1003A00081F308BF2033A3F10B03B3F120020CDA71
:1003B0000C3208DD02F1140CC2F10C0201FA0CF04F
:1003C00021FA02F10CE002F11402D8BFC2F1200CB4
:1003D00001FA02F120FA0CFCDCBF41EA0C0190406A
:1003E000E41AA2BF01EB0451294330BD6FEA0404B3
:1003F0001F3C1CDA0C340EDC04F11404C4F120029E
:1004000020FA04F001FA02F340EA030021FA04F3AF
:1004100045EA030130BDC4F10C04C4F1200220FA06
:1004200002F001FA04F340EA0300294630BD21FA44
:1004300004F0294630BD94F0000F83F4801306BF0A
:1004400081F480110134013D4EE77FEA645C18BFFE
:100450007FEA655C29D094EA050F08BF90EA020F95
:1004600005D054EA000C04BF1946104630BD91EA8D
:10047000030F1EBF0021002030BD5FEA545C05D190
:100480004000494128BF41F0004130BD14F58004CF
:100490003CBF01F5801130BD01F0004545F0FE4143
:1004A00041F470014FF0000030BD7FEA645C1ABF78
:1004B000194610467FEA655C1CBF0B46024650EAAF
:1004C000013406BF52EA033591EA030F41F40021DB
:1004D00030BD00BF90F0000F04BF0021704730B561
:1004E0004FF4806404F132044FF000054FF0000136
:1004F00050E700BF90F0000F04BF0021704730B5F7
:100500004FF4806404F1320410F0004548BF4042CB
:100510004FF000013EE700BF42004FEAE2014FEA20
:1005200031014FEA02701FBF12F07F4393F07F4FFB
:1005300081F06051704732F07F4208BF704793F0FE
:100540007F4F04BF41F40021704730B54FF4607411
:1005500001F0004521F000411CE700BF50EA010214
:1005600008BF704730B54FF000050AE050EA0102BD
:1005700008BF704730B511F0004502D5404261EB2D
:1005800041014FF4806404F132045FEA915C3FF46E
:10059000D8AE4FF003025FEADC0C18BF03325FEA0B
:1005A000DC0C18BF033202EBDC02C2F1200300FABC
:1005B00003FC20FA02F001FA03FE40EA0E0021FAE1
:1005C00002F11444BDE600BF70B54FF0FF0C4CF4CF
:1005D000E06C1CEA11541DBF1CEA135594EA0C0F81
:1005E00095EA0C0F00F0DEF82C4481EA030621EABC
:1005F0004C5123EA4C5350EA013518BF52EA0335F7
:1006000041F4801143F4801338D0A0FB02CE4FF0A8
:100610000005E1FB02E506F00042E0FB03E54FF0D8
:100620000006E1FB03569CF0000F18BF4EF0010ED0
:10063000A4F1FF04B6F5007F64F5407404D25FEACC
:100640004E0E6D4146EB060642EAC62141EA55517F
:100650004FEAC52040EA5E504FEACE2EB4F1FD0CC1
:1006600088BFBCF5E06F1ED8BEF1004F08BF5FEA3F
:10067000500E50F1000041EB045170BD06F00046F1
:1006800046EA010140EA020081EA0301B4EB5C049E
:10069000C2BFD4EB0C0541EA045170BD41F4801196
:1006A0004FF0000E013C00F3AB8014F1360FDEBFBB
:1006B000002001F0004170BDC4F10004203C35DA97
:1006C0000C341BDC04F11404C4F1200500FA05F31A
:1006D00020FA04F001FA05F240EA020001F00042BB
:1006E00021F0004110EBD37021FA04F642EB060131
:1006F0005EEA430E08BF20EAD37070BDC4F10C045B
:10070000C4F1200500FA04F320FA05F001FA04F21E
:1007100040EA020001F0004110EBD37041F100010A
:100720005EEA430E08BF20EAD37070BDC4F1200515
:1007300000FA05F24EEA020E20FA04F301FA05F27D
:1007400043EA020321FA04F001F0004121FA04F225
:1007500020EA020000EBD3705EEA430E08BF20EAF5
:10076000D37070BD94F0000F0FD101F0004640002F
:1007700041EB010111F4801F08BF013CF7D041EAB1
:10078000060195F0000F18BF704703F000465200B5
:1007900043EB030313F4801F08BF013DF7D043EA86
:1007A0000603704794EA0C0F0CEA135518BF95EA3C
:1007B0000C0F0CD050EA410618BF52EA4306D1D1C3
:1007C00081EA030101F000414FF0000070BD50EAE2
:1007D000410606BF1046194652EA430619D094EA6C
:1007E0000C0F02D150EA013613D195EA0C0F05D156
:1007F00052EA03361CBF104619460AD181EA0301AA
:1008000001F0004141F0FE4141F470014FF0000061
:1008100070BD41F0FE4141F4780170BD70B54FF0FC
:10082000FF0C4CF4E06C1CEA11541DBF1CEA13557C
:1008300094EA0C0F95EA0C0F00F0A7F8A4EB05045E
:1008400081EA030E52EA03354FEA013100F0888055
:100850004FEA03334FF0805545EA131343EA12631E
:100860004FEA022245EA111545EA10654FEA0026D3
:100870000EF000419D4208BF964244F1FD0404F58C
:10088000407402D25B084FEA3202B61A65EB0305E8
:100890005B084FEA32024FF480104FF4002CB6EBA5
:1008A000020E75EB030E22BFB61A754640EA0C0025
:1008B0005B084FEA3202B6EB020E75EB030E22BF65
:1008C000B61A754640EA5C005B084FEA3202B6EBA6
:1008D000020E75EB030E22BFB61A754640EA9C0065
:1008E0005B084FEA3202B6EB020E75EB030E22BF35
:1008F000B61A754640EADC0055EA060E18D04FEAF3
:10090000051545EA16754FEA06164FEAC30343EA92
:1009100052734FEAC2025FEA1C1CC0D111F4801F5F
:100920000BD141EA00014FF000004FF0004CB6E758
:1009300011F4801F04BF01430020B4F1FD0C88BFF7
:10094000BCF5E06F3FF6AFAEB5EB030C04BFB6EB02
:10095000020C5FEA500C50F1000041EB045170BDF5
:100960000EF0004E4EEA113114EB5C04C2BFD4EB22
:100970000C0541EA045170BD41F480114FF0000EA6
:10098000013C90E645EA060E8DE60CEA135594EA22
:100990000C0F08BF95EA0C0F3FF43BAF94EA0C0F25
:1009A0000AD150EA01347FF434AF95EA0C0F7FF49A
:1009B00025AF104619462CE795EA0C0F06D152EAEE
:1009C00003353FF4FDAE1046194622E750EA4106D2
:1009D00018BF52EA43067FF4C5AE50EA41047FF4E3
:1009E0000DAF52EA43057FF4EBAE12E74FF0FF3C48
:1009F00006E000BF4FF0010C02E000BF4FF0010C19
:100A00004DF804CD4FEA410C7FEA6C5C4FEA430C91
:100A100018BF7FEA6C5C1BD001B050EA410C0CBFE0
:100A200052EA430C91EA030F02BF90EA020F002042
:100A3000704710F1000F91EA030F58BF994208BFA9
:100A400090422CBFD8176FEAE37040F00100704766
:100A50004FEA410C7FEA6C5C02D150EA013C07D1BD
:100A60004FEA430C7FEA6C5CD6D152EA033CD3D008
:100A70005DF8040B704700BF8446104662468C4602
:100A80001946634600E000BF01B5FFF7B7FF002835
:100A900048BF10F1000F01BD4DF808EDFFF7F4FF5E
:100AA0000CBF012000205DF808FB00BF4DF808EDE9
:100AB000FFF7EAFF34BF012000205DF808FB00BF0C
:100AC0004DF808EDFFF7E0FF94BF012000205DF82E
:100AD00008FB00BF4DF808EDFFF7CEFF94BF0120E3
:100AE00000205DF808FB00BF4DF808EDFFF7C4FFDC
:100AF00034BF012000205DF808FB00BF4FEA410C25
:100B00007FEA6C5C02D150EA013C0AD14FEA430C07
:100B10007FEA6C5C02D152EA033C02D14FF0000044
:100B200070474FF0010070474FEA410212F5001282
:100B300015D211D56FF47873B3EB625212D94FEA24
:100B4000C12343F0004343EA505311F0004F23FA0E
:100B500002F018BF404270474FF00000704750EA63
:100B6000013005D111F0004008BF6FF00040704720
:100B70004FF00000704700BF53B94AB9002908BFC1
:100B800000281CBF4FF0FF314FF0FF3000F074B968
:100B9000ADF1080C6DE904CE00F006F8DDF804E0D4
:100BA000DDE9022304B070472DE9F047089D0446B3
:100BB0008E46002B4DD18A42944669D9B2FA82F210
:100BC00052B101FA02F3C2F1200120FA01F10CFA4C
:100BD00002FC41EA030E94404FEA1C48210CBEFB84
:100BE000F8F61FFA8CF708FB16E341EA034306FB0D
:100BF00007F199420AD91CEB030306F1FF3080F09C
:100C00001F81994240F21C81023E63445B1AA4B2E8
:100C1000B3FBF8F008FB103344EA034400FB07F78A
:100C2000A7420AD91CEB040400F1FF3380F00A81CB
:100C3000A74240F207816444023840EA0640E41BC0
:100C400000261DB1D4400023C5E900433146BDE86C
:100C5000F0878B4209D9002D00F0EF800026C5E90E
:100C6000000130463146BDE8F087B3FA83F6002E26
:100C70004AD18B4202D3824200F2F980841A61EB9E
:100C8000030301209E46002DE0D0C5E9004EDDE7BC
:100C900002B9FFDEB2FA82F2002A40F09280A1EBA4
:100CA0000C014FEA1C471FFA8CFE0126200CB1FBF9
:100CB000F7F307FB131140EA01410EFB03F08842F2
:100CC00008D91CEB010103F1FF3802D2884200F27F
:100CD000CB804346091AA4B2B1FBF7F007FB101111
:100CE00044EA01440EFB00FEA64508D91CEB0404AF
:100CF00000F1FF3102D2A64500F2BB800846A4EB0A
:100D00000E0440EA03409CE7C6F12007B34022FAF4
:100D100007FC4CEA030C20FA07F401FA06F31C4323
:100D2000F9404FEA1C4900FA06F3B1FBF9F8200C30
:100D30001FFA8CFE09FB181140EA014108FB0EF076
:100D4000884202FA06F20BD91CEB010108F1FF3AC6
:100D500080F08880884240F28580A8F102086144D2
:100D6000091AA4B2B1FBF9F009FB101144EA0141E0
:100D700000FB0EFE8E4508D91CEB010100F1FF348B
:100D80006CD28E456AD90238614440EA0840A0FB23
:100D90000294A1EB0E01A142C846A64656D353D0F9
:100DA0005DB1B3EB080261EB0E0101FA07F722FA1D
:100DB00006F3F1401F43C5E9007100263146BDE846
:100DC000F087C2F12003D8400CFA02FC21FA03F3A9
:100DD000914001434FEA1C471FFA8CFEB3FBF7F02A
:100DE00007FB10360B0C43EA064300FB0EF69E424F
:100DF00004FA02F408D91CEB030300F1FF382FD2E8
:100E00009E422DD9023863449B1B89B2B3FBF7F68F
:100E100007FB163341EA034106FB0EF38B4208D968
:100E20001CEB010106F1FF3816D28B4214D9023EA9
:100E30006144C91A46EA004638E72E46284605E7C7
:100E40000646E3E61846F8E64B45A9D2B9EB020898
:100E500064EB0C0E0138A3E74646EAE7204694E728
:100E60004046D1E7D0467BE7023B614432E730465B
:100E700009E76444023842E7704700BF80B483B09A
:100E800000AF7860064BD3F8902005497B68134388
:100E9000C1F8903000BF0C37BD465DF8047B704749
:100EA0000008005880B485B000AF78604FF0B043C0
:100EB000DA6C4FF0B0417B681343CB644FF0B04322
:100EC000DA6C7B681340FB60FB6800BF1437BD46DB
:100ED0005DF8047B704780B485B000AF78604FF058
:100EE000B043D3F84C214FF0B0417B681343C1F8B5
:100EF0004C314FF0B043D3F84C217B681340FB607A
:100F0000FB6800BF1437BD465DF8047B704780B5B1
:100F100000AF04F011F904F015F94FF48030FFF739
:100F2000ADFF0AF007FC00F021F800F0C3F800BFA5
:100F300080BD0000B0B588B000AF0B4B3C1D1D4616
:100F40000FCD0FC495E8070003C422800234130CB0
:100F500023700CF013F83B1D18460AF064FE00BF26
:100F60002037BD46B0BD00BF1002010880B588B073
:100F700000AF3B1D00221A605A609A60DA601A6165
:100F80000023BB8300237B8300233B830023FB7769
:100F900038E0FB7F444ADB0013449B79002B2BD0C5
:100FA000FB7F414A52F83330404A93421BD03F4ABC
:100FB000934223D8B3F1904F03D03D4A934209D0D6
:100FC0001CE0FB7F384ADB0013449A88BB8B134339
:100FD000BB8314E0FB7F344ADB0013449A887B8B8D
:100FE00013437B830BE0FB7F2F4ADB0013449A887B
:100FF0003B8B13433B8302E000BF00E000BFFB7F5D
:101000000133FB77FB7F252BC3D90023FB60012332
:10101000BB6003233B61BB8B002B14D0BB8B7B607D
:101020000120FFF73FFF0120FFF755FF3B1D194649
:101030004FF0904004F0BAFDBB8B002219464FF0F0
:10104000904004F023FF7B8B002B12D07B8B7B60C6
:101050000220FFF727FF0220FFF73DFF3B1D194647
:10106000134804F0A3FD7B8B00221946104804F0BE
:101070000DFF3B8B002B13D03B8B7B600420FFF7D5
:1010800011FF0420FFF727FF3B1D1946074804F016
:101090008DFD3B8B00221946044804F0F7FE00BF8B
:1010A00000BF2037BD4680BDEC1A0108000800488B
:1010B0000004004880B400AF00BFBD465DF8047B6B
:1010C000704780B500AF01F0C1FC00BF80BD80B5A6
:1010D00084B000AFF8600B467A607B817A897B68C8
:1010E000F968002001F002FB00BF1037BD4680BD4B
:1010F00080B483B000AF7860074BD3F8803023F022
:10110000070205497B681343C1F8803000BF0C37E4
:10111000BD465DF8047B70470004005880B483B07E
:1011200000AF7860064BD3F8902005497B681343E5
:10113000C1F8903000BF0C37BD465DF8047B7047A6
:101140000008005880B483B000AF78604FF0B0431F
:101150000A4AC3F89C204FF0B043D3F89C3023F4E4
:101160007C527B681B024FF0B0411343C1F89C30A6
:1011700000BF0C37BD465DF8047B7047FECAFECA4F
:1011800080B483B000AF78604FF0B0439B6823F425
:1011900000424FF0B0417B6813438B6000BF0C37B7
:1011A000BD465DF8047B704780B400AF4FF0B0439C
:1011B000D3F890304FF0B04243F48033C2F890300F
:1011C00000BFBD465DF8047B704780B400AF4FF0B0
:1011D000B043D3F890304FF0B04223F48033C2F8DC
:1011E000903000BFBD465DF8047B704780B400AF0F
:1011F0004FF0B043D3F8943003F08063B3F1806FC5
:1012000001D1012300E000231846BD465DF8047BB0
:10121000704780B400AF4FF0B043D3F8943003F080
:101220008053B3F1805F01D1012300E00023184611
:10123000BD465DF8047B704780B485B000AF786030
:101240004FF0B0431A6D4FF0B0417B6813430B650C
:101250004FF0B0431A6D7B681340FB60FB6800BF22
:101260001437BD465DF8047B7047000080B400AFC2
:10127000044B1B68C3F30B031846BD465DF8047BA3
:10128000704700BF002004E080B400AF044B1B682F
:101290001B0C9BB21846BD465DF8047B704700BF2F
:1012A000002004E080B483B000AF786039607B68D0
:1012B0005A683B681B041A437B685A6000BF0C37AE
:1012C000BD465DF8047B704780B483B000AF7860A2
:1012D00039607B685A683B681A437B685A6000BF74
:1012E0000C37BD465DF8047B704780B483B000AF17
:1012F000786039607B685A693B681B041A437B68D5
:101300005A6100BF0C37BD465DF8047B704780B45E
:1013100083B000AF786039607B685A693B681A43D4
:101320007B685A6100BF0C37BD465DF8047B70478F
:1013300080B483B000AF786039607B683A689A60A7
:1013400000BF0C37BD465DF8047B704780B483B0A6
:1013500000AF786039607B683A689A6100BF0C37EB
:10136000BD465DF8047B704780B400AF054B1B6938
:10137000044A23F00403136100BFBD465DF8047BFB
:10138000704700BF00ED00E080B483B000AF78602C
:101390007B68FF225A6200BF0C37BD465DF8047BB4
:1013A000704780B483B000AF78607B68CA225A620D
:1013B0007B6853225A6200BF0C37BD465DF8047B40
:1013C000704780B483B000AF786039607B689B68F9
:1013D00023F007023B681A437B689A6000BF0C3712
:1013E000BD465DF8047B704780B500AF044B4FF4F9
:1013F00000421A6100F030F800F070F800BF80BDC4
:101400000040005880B500AF00F07CF800F094F880
:101410000949002000F03EFFFFF779FD012101207E
:101420000BF04AFE00F0EAF900F0F8F900F086FA55
:1014300000F090F800BF80BD8C06002080B400AFA3
:1014400000BFBD465DF8047B704780B500AF5020FB
:10145000FFF764FE00BF80BD80B500AF00F004F868
:1014600000F01AF800BF80BD80B500AFFFF7BEFEE8
:101470000346002B0DD0FFF7CCFE0346002B08D10E
:1014800004F0DEFD04F0DCFDFFF78EFEFFF79DFEAD
:1014900000BF00BF80BD000080B500AF4FF48010DA
:1014A000FFF7CAFE3F210C48FFF742FF3F210A48E1
:1014B000FFF74CFF3F210848FFF7F4FE3F210648A5
:1014C000FFF713FF3F210448FFF7FEFE3F210248CC
:1014D000FFF71DFF00BF80BD000C005880B582B033
:1014E00000AF00200AF060FB78607B68002B05D01D
:1014F0007B689B791846FFF725FE00BF00BF0837C1
:10150000BD4680BD80B500AFFFF798FFFFF79DFF98
:1015100000F002F800BF80BD80B500AF0548FFF7BE
:1015200040FF00210348FFF74CFF0248FFF72CFF64
:1015300000BF80BD0028004080B500AF4FF40040E0
:10154000FFF71EFE0BF0A6FD0420FFF7D1FD00BF44
:1015500080BD000080B588B000AF0BF059FB114A88
:10156000002140200BF0D4FE0F4B3B600F4B7B6003
:101570003B4619460E480AF031FC0E4BBB600E4B41
:10158000FB600E4B3B6140F23C537B6107F108036B
:1015900018460BF07FFC0BF035FB00BF2037BD4633
:1015A00080BD00BF15BE000834070320C115000828
:1015B000D91500084C09032040080320F801032036
:1015C00080B483B000AF0346FB7100BF0C37BD464B
:1015D0005DF8047B7047000080B588B000AF78608C
:1015E0007B685B680B33FB61FB691B889BB2A3F5CF
:1015F0001243072B60D801A252F823F01D160008F1
:101600005F1600086D160008B91600088916000854
:1016100099160008A1160008B116000807F10C037E
:1016200018460AF02DFB3B7B19467B7B1A46BB7B99
:1016300024480CF059FC3B7C194623480CF054FC20
:10164000BB7D1946FB7D1A463B7E20480CF04CFCC6
:101650001F480CF049FC786800F070F82DE01D4838
:101660000CF042FC786800F043F826E01A480CF0D1
:10167000D7FCFB6902331968FB6902335B681A46C1
:1016800016480CF031FC18E0FB6902331B68194660
:1016900013480CF029FC10E012480CF025FC0CE07B
:1016A000FB6902331B6819460F480CF01DFC04E06F
:1016B0000E480CF019FC00E000BF00BF2037BD460B
:1016C00080BD00BF2C020108500201086C02010815
:1016D00084020108A4020108C802010818030108D5
:1016E000400301087C030108A0030108DC03010892
:1016F00080B584B000AF78607B685B680B33FB60BB
:10170000FB680233BB60BB681B78194608480CF0C5
:10171000EBFBBB681B78002B03D106480CF080FC68
:1017200003E005480CF07CFC00BF1037BD4680BDCF
:1017300000040108300401086C04010880B58AB077
:1017400000AF786007F1080300221A605A609A60BF
:10175000DA6000237B6200233B627B685B680B33AB
:10176000FB61FB690233BB61BB691B78002B28D18D
:101770001D480CF055FCFFF7DDFB0F233B727F2368
:10178000BB72FFF781FD7862796A18480CF0ACFBF8
:101790007B6A9BB2BB82FFF769FD3862396A1448E5
:1017A0000CF0A2FB3B6A9BB2FB8207F108031846D0
:1017B0000AF050FA01F0D8FD002101200BF07CFC6A
:1017C0000EE0BB691B78012B06D10A480CF08CFB9C
:1017D0007B6800221A7003E007480CF085FB00BF0D
:1017E0002837BD4680BD00BFA4040108C00401081D
:1017F000E4040108040501083805010880B500AFBC
:10180000002003F0CDFA012003F0CAFA022003F011
:10181000C7FA012003F0FEFA00BF80BD80B500AF1B
:101820000121002003F010FB0121012003F00CFB3B
:101830000121022003F008FB00BF80BD80B584B009
:1018400000AF786003F054FCB8607B68FB60FB6815
:10185000B3F1FF3F0AD003F063FC03461A46FB686E
:101860001344FB6002E0FFF77FFD30BF03F040FC54
:101870000246BB68D31AFA689A42F4D800BF00BF88
:101880001037BD4680BD80B500AF4FF0FF300BF084
:1018900043FC00BF80BD80B400AF00BFBD465DF813
:1018A000047B704780B582B000AF786039604FF03C
:1018B000FF300BF031FC00BF0837BD4680BD80B55E
:1018C00082B000AF7860002140200BF043FD00BFE4
:1018D0000837BD4680BD80B582B000AF7860022079
:1018E0000BF0A4FD00BF0837BD4680BD80B582B0B7
:1018F00000AF786002200BF0B9FD00BF0837BD468D
:1019000080BD80B582B000AF0346FB80FB88102B02
:1019100006D0102B0DDC012B05D0022B06D008E0E1
:1019200002F050FA06E002F053FA03E002F072FA15
:1019300000E000BF00BF0837BD4680BD80B500AFE6
:10194000034B01220349002000F096FE00BF80BD3A
:10195000591900089802002080B500AF154B1B886C
:10196000FF2B1ED8144B1B780D2B0FD11349144895
:101970000CF0BAFA00F028F80E4B00221A804FF44F
:10198000807200210D480BF03DFE0AE0094B1B88D8
:101990005A1C91B2074A11801A46074B1978074B17
:1019A0009954084B01220449002000F065FE00BF55
:1019B00080BD00BFA003002098020020A0020020EC
:1019C0006C0501085919000880B500AF1C491D4875
:1019D000FEF7D6FB0346002B09D11B480CF020FB79
:1019E0001A4B1B4A1A60194804F0BEF826E0194940
:1019F0001448FEF7C5FB0346002B0AD116480CF02D
:101A00000FFB124B4FF0B0521A60104804F0ACF8C4
:101A100014E012490B48FEF7B3FB0346002B09D133
:101A20000F480CF0FDFA094B0E4A1A60074804F003
:101A30009BF803E003490C480CF056FA00BF80BD48
:101A40007C050108A002002080050108900200200A
:101A500004000016880501088C050108940501089A
:101A60009805010801000016A005010880B483B0A4
:101A700000AF7860064BD3F8802005497B6813439C
:101A8000C1F8803000BF0C37BD465DF8047B70475D
:101A90000008005880B483B000AF7860054B1A6826
:101AA00004497B6813430B6000BF0C37BD465DF8EB
:101AB000047B70470008005880B483B000AF0D4B22
:101AC0009B6A9BB27B600B4B9B6A9BB23B6005E0C1
:101AD0003B687B60074B9B6A9BB23B607A683B68C4
:101AE0009A42F5D13B6818460C37BD465DF8047B39
:101AF000704700BF0028004080B485B000AF0346A7
:101B00000A46FB711346BB71BA791D4913465B0047
:101B10001344DB000B4415331B78FB73FB7B062B54
:101B200009D0FA7B164913465B001344DB000B44D3
:101B30001433FA791A70FA79114913465B00134489
:101B4000DB000B441533FA7B1A70FA790C49134603
:101B50005B001344DB000B441433BA791A70BA7972
:101B6000074913465B001344DB000B441533FA7935
:101B70001A7000BF1437BD465DF8047B704700BF84
:101B8000A403002080B485B000AF03460A46FB7171
:101B90001346BB71294B1B78DBB2BA799A4232D01B
:101BA000BA79274913465B001344DB000B44143316
:101BB0001B78FB73FA7B224913465B001344DB005E
:101BC0000B441533FA791A70FA791D4913465B00F4
:101BD0001344DB000B441533BA791A70FA791849AB
:101BE00013465B001344DB000B441433FA7B1A707A
:101BF000BA79134913465B001344DB000B441433DA
:101C0000FA791A7014E0FA790D4913465B0013440F
:101C1000DB000B441533BA791A70BA7908491346B8
:101C20005B001344DB000B441433FA791A7000BFD5
:101C30001437BD465DF8047B704700BF34040020B4
:101C4000A403002080B584B000AF0346FB714E4B67
:101C50001B78DBB2062B18D14B4B1B78DAB24B4BFF
:101C60001A70494AFB791370FA79494913465B00A7
:101C70001344DB000B44153306221A70454B4FF01A
:101C8000FF321A600023FB8178E000F009F9034677
:101C9000FB81FA793E4913465B001344DB000B4499
:101CA00008331968FB89FA791944394813465B00EF
:101CB0001344DB00034408331960FA7934491346AE
:101CC0005B001344DB000B4408331B68BB602E4BE6
:101CD0001B78DBB219462E4A0B465B000B44DB0037
:101CE000134408331B68BA689A4237D3264B1B78D3
:101CF0007B737A7B264913465B001344DB000B445D
:101D000015331B783B7313E07A7B214913465B0044
:101D10001344DB000B4415331B787B737A7B1C491F
:101D200013465B001344DB000B4415331B783B73F5
:101D30003B7B062B0BD03A7B154913465B001344C3
:101D4000DB000B4408331B68BA689A42DCD27A7B0A
:101D5000FB7911461846FFF7CFFE0FE00A4B1B78C0
:101D6000DAB2FB7911461846FFF70CFF064B1B78D9
:101D7000DAB2064B1A70044AFB791370FB891846D5
:101D80001037BD4680BD00BF34040020350400205C
:101D9000A40300203804002080B485B000AF0346BF
:101DA0000A46FB711346BB71394B1B78DBB2FA79DB
:101DB0009A4211D1364B1B78DAB2364B1A70FA7947
:101DC000354913465B001344DB000B4415331B7885
:101DD000DAB22F4B1A703EE0FA792F4913465B00B6
:101DE0001344DB000B4414331B78FB73FA792A4944
:101DF00013465B001344DB000B4415331B78BB73A5
:101E0000F979FA7B24480B465B000B44DB00034462
:101E100015331B78D8B2204913465B001344DB000E
:101E20000B44153302461A70BB7B062B13D0F9798D
:101E3000BA7B19480B465B000B44DB0003441433A8
:101E40001B78D8B2144913465B001344DB000B44E3
:101E5000143302461A70FA790F4913465B00134493
:101E6000DB000B440C3301221A70094B1B78DBB2E8
:101E7000062B07D1BB79002B04D1084B4FF0FF3262
:101E80001A6000BF00BF1437BD465DF8047B704781
:101E90003404002035040020A4030020380400206E
:101EA00080B582B000AF1A4B1B68B3F1FF3F26D05C
:101EB000FFF702FE7860164B1B687A689A4205D8D5
:101EC000134B1A687B68D31A7B600AE0114B1B889E
:101ED0001A467B68D31A3B600D4B1B683A68134463
:101EE0007B600D4B1B781A467B6802FB03F37B601B
:101EF0000A4B1B781A467B68D3407B6001E00023C5
:101F00007B607B689BB218460837BD4680BD00BF2A
:101F100038040020400400203E0400203D0400203E
:101F200080B582B000AF0346FB80FB88002B08D150
:101F3000FFF7C2FD0346214A1360032003F085FA30
:101F400039E0FB88012B03D81D4B1B78012B02D0F5
:101F5000FB88013BFB8000BF1A4B1B68DB6803F06A
:101F60000403002BF8D0174B1B68DB68DAB2154B63
:101F70001B6862F49062DA60134B4FF40022DA605F
:101F8000032003F070FA114B5B691B0C1B04FA88E9
:101F90000E4913434B61FFF78FFD0346074A136059
:101FA000084B1B689A68074B1B6842F480629A6072
:101FB000AFF3008000BF0837BD4680BD3804002065
:101FC0003D0400208C060020000800580028004036
:101FD00080B584B000AF454B9B6803F48063B3F5D4
:101FE000806F07D100BF424B1B68DB6803F004031E
:101FF000002BF8D13E4B1B689A683D4B1B6822F4BE
:1020000080629A603B4B1B78FB73FA7B3A4913461C
:102010005B001344DB000B4408331B68BB60FFF715
:102020003FFF0346FB80FB88BA689A4205D2002333
:10203000BB81324B01221A704DE0FB88304A128876
:1020400092B213441A46BB68934206D92C4B1B88A4
:10205000BB812A4B00221A703DE0BB689AB2FB8814
:10206000D31ABB81254B01221A7034E0FA7B224936
:1020700013465B001344DB000B4408331A68FB88EB
:102080009A420AD2FA7B1C4913465B001344DB00D8
:102090000B44083300221A6013E0FA7B16491346FA
:1020A0005B001344DB000B4408331968FB88FA7BA0
:1020B000C91A114813465B001344DB00034408337C
:1020C0001960FA7B0C4913465B001344DB000B4498
:1020D00015331B78FB73FB7B062BC7D1BB891846D6
:1020E000FFF71EFF00BF1037BD4680BD002800402F
:1020F0008C06002034040020A40300203C040020AF
:102100004204002080B58AB000AFEFF310837B61FA
:102110007B697B6272B600BF594B1B68CA225A6248
:10212000574B1B6853225A62554B1B689A68544B95
:102130001B6822F480629A60524B1B7887F8233028
:1021400097F82320504913465B001344DB000B44EF
:102150000C331B78DBB2022B6ED197F823204A494F
:1021600013465B001344DB000B441B68FB6197F8CC
:102170002320454913465B001344DB000B44103316
:102180001B68BB61414B1B78DBB2002B4CD097F82E
:1021900023203D4913465B001344DB000B440D3301
:1021A0001B78DBB2012B24D197F82330012118468C
:1021B000FFF7F2FD7B6A3B613B6983F3108800BF48
:1021C00097F82320304913465B001344DB000B448F
:1021D00004331A6897F823301146184600F0B8F90E
:1021E000274B1B68CA225A62254B1B6853225A622E
:1021F00012E07B6AFB60FB6883F3108800BF97F8EE
:102200002330184600F020F91D4B1B68CA225A6281
:102210001B4B1B6853225A6297F82330FA69194600
:10222000B86900F01BFA22E0FFF7D2FE7B6ABB60C0
:10223000BB6883F310881AE000BF114B1B68DB6892
:1022400003F00403002BF8D00D4B1B68DB68DAB2F7
:102250000B4B1B6862F49062DA600D4B4FF4002266
:10226000DA607B6A7B607B6883F3108800BF044B75
:102270001B68FF225A6200BF2837BD4680BD00BFE1
:102280008C06002034040020A40300203C0400201D
:102290000008005880B588B000AF03463960FB7174
:1022A0005E4B1B68CA225A625C4B1B6853225A62FF
:1022B0005B4B9B685A4A43F020039360584B9B68E2
:1022C000DBB203F00703DBB2C3F10403DAB2554B10
:1022D0001A70534B1B6903F4FE034FF4FE023A617C
:1022E0003A6992FAA2F2FA60FA687A617A69002A87
:1022F00001D1202203E07A69B2FA82F2D2B2D3404D
:10230000DBB20133DAB2484B1A70454B1B699BB202
:10231000C3F30E039BB201339AB2444B1A80434B72
:102320001B88013B404A127802FB03F3A3F5A0731C
:102330003C4A1278D340BB61BB694FF6FE729342B0
:1023400004D93B4B4FF6FF721A8003E0BB699AB287
:10235000374B1A804FF40020FFF79CFB4FF400200E
:10236000FFF784FBFB79002B3DD1324B01221A7021
:10237000314B4FF0FF321A600023FB770CE0FA7FFD
:102380002E4913465B001344DB000B440C33002240
:102390001A70FB7F0133FB77FB7F052BEFD9284BAE
:1023A00006221A701D4B1B689A681C4B1B6822F48E
:1023B00080629A60194B1B68DB68DAB2174B1B68A6
:1023C00062F49062DA601F4B4FF40022DA6003205F
:1023D00003F049F8114B1B689A68104B1B6842F4D4
:1023E00080429A6009E00D4B1B68DB6803F4806350
:1023F000002B02D0032003F028F8084B1B68FF22B3
:102400005A6200220321032002F0DDFF032002F0C4
:10241000F4FF00BF2037BD4680BD00BF8C06002002
:10242000002800403D0400203E040020400400201D
:10243000420400203C04002038040020A4030020B3
:10244000340400200008005880B586B000AF034671
:10245000FB71EFF31083FB60FB687B6172B600BF1A
:10246000032002F0D8FF344B1B68CA225A62324B59
:102470001B6853225A62FA79304913465B001344B1
:10248000DB000B440C331B78DBB2022B42D1FB790F
:1024900000211846FFF780FC294B1B78FB74FB7C5E
:1024A000062B2FD1274B9B6803F48063B3F5806F15
:1024B00007D100BF204B1B68DB6803F00403002B2F
:1024C000F8D11D4B1B689A681B4B1B6822F4806275
:1024D0009A6000BF184B1B68DB6803F00403002BF5
:1024E000F8D0154B1B68DB68DAB2134B1B6862F43B
:1024F0009062DA60144B4FF40022DA60032002F09D
:10250000B2FF07E0114B1B78DBB2FA7C9A4201D094
:10251000FFF75EFD084B1B68FF225A62032002F0A2
:102520006CFF7B69BB60BB6883F3108800BF00BF92
:102530001837BD4680BD00BF8C060020A4030020D4
:102540003404002000280040000800583504002012
:1025500080B586B000AF03463960FB71FA793B491C
:1025600013465B001344DB000B440C331B78DBB2D7
:10257000022B03D1FB791846FFF766FFEFF31083B8
:10258000FB60FB687B6172B600BF032002F043FF73
:102590002F4B1B68CA225A622D4B1B6853225A626A
:1025A000FA792A4913465B001344DB000B440C33D1
:1025B00002221A70FA79254913465B001344DB00A6
:1025C0000B4408333A681A60FA79204913465B00D5
:1025D0001344DB000B4404333A681A60FB79184655
:1025E000FFF730FB03467B821A4B1B787B741A4B38
:1025F0001B78DBB27A7C9A4202D0FFF7E9FC13E049
:10260000FA79124913465B001344DB000B4408338C
:1026100019687B8AFA79C91A0C4813465B0013447F
:10262000DB00034408331960094B1B68FF225A6220
:10263000032002F0E2FE7B69BB60BB6883F3108875
:1026400000BF00BF1837BD4680BD00BFA4030020F7
:102650008C060020340400203504002080B584B0AE
:1026600000AFF8600B467A60FB727B68984700BF4A
:102670001037BD4680BD000080B584B000AFB960A2
:102680007B600346FB731346BB81FB7B002B02D0B0
:10269000022B0DD019E00F4A7B6813600E4B0F4AD6
:1026A0001A60BB891A46B9680B4805F0F7FC0CE0C4
:1026B0000B4A7B6813600B4B0B4A1A60BB891A46A6
:1026C000B968084805F0EAFC00BF00BF1037BD46F6
:1026D00080BD00BF440400202405002000380140D4
:1026E0004C040020900400200080004080B586B09B
:1026F00000AFB9607B600346FB731346BB810023C8
:10270000FB750023BB75FB7B002B02D0022B0FD087
:102710001DE01F4A7B6813601E4B1F4A1A60BB896D
:102720001A46B9681B4805F005FD0346FB750EE027
:102730001A4A7B6813601A4B1A4A1A60BB891A46F8
:10274000B968174805F0F6FC0346FB7500BFFB7D32
:10275000032B17D801A252F823F000BF6D27000801
:1027600073270008792700087F2700080023BB751E
:1027700009E00123BB7506E00223BB7503E00323D8
:10278000BB7500E000BFBB7D18461837BD4680BD55
:102790004804002024050020003801405004002097
:1027A000900400200080004080B582B000AF7860C7
:1027B0007B681B680F4A93420AD00F4A93420FD19D
:1027C0000E4B1B68002B0DD00C4B1B68984709E083
:1027D0000B4B1B68002B07D0094B1B68984703E085
:1027E00000BF02E000BF00E000BF00BF0837BD46E9
:1027F00080BD00BF0080004000380140440400203C
:102800004C04002080B582B000AF78607B681B6804
:102810000F4A93420AD00F4A93420FD10E4B1B68C6
:10282000002B0DD00C4B1B68984709E00B4B1B6825
:10283000002B07D0094B1B68984703E000BF02E05C
:1028400000BF00E000BF00BF0837BD4680BD00BF2D
:10285000008000400038014048040020500400205F
:1028600080B483B000AF78604FF0B043D3F89030BD
:1028700023F018024FF0B0417B681343C1F8903049
:1028800000BF0C37BD465DF8047B704780B485B04F
:1028900000AF78604FF0B0439A6C4FF0B0417B6866
:1028A00013438B644FF0B0439A6C7B681340FB601A
:1028B000FB6800BF1437BD465DF8047B704780B4E9
:1028C00085B000AF78604FF0B043DA6C4FF0B041A4
:1028D0007B681343CB644FF0B043DA6C7B681340E2
:1028E000FB60FB6800BF1437BD465DF8047B704792
:1028F00080B500AF02F08EFBFEF776FD00F014F815
:1029000000F070F800F08EF800F05EF900F03EF98B
:1029100000F008F900F0F0F800F0E6F8FEF772FDBC
:10292000FEF7B1FFFCE7000080B59AB000AF07F1F9
:1029300020034822002118460AF064FE3B1D0022B5
:102940001A605A609A60DA601A615A619A6103F0FB
:1029500077FB0020FFF784FF214B1B6823F4C06343
:102960001F4A43F4007313601D4B1B6803F4C063DC
:102970003B603B6847233B624FF480337B6201231B
:10298000BB624FF48073FB620123BB6440233B6353
:102990000023FB6407F12003184603F0E5FE03461D
:1029A000002B01D000F072F96F237B600223BB6023
:1029B0000023FB6000233B6100237B610023BB619C
:1029C0000023FB613B1D0121184604F041FA034638
:1029D000002B01D000F05AF900BF6837BD4680BD1A
:1029E0000004005880B594B000AF3B46502200214F
:1029F00018460AF007FE4FF440533B604FF4804303
:102A00007B640223BB641023FB643B46184604F03E
:102A10005CFE0346002B01D000F038F900BF5037B0
:102A2000BD4680BD80B500AF064B074A1A60054819
:102A300003F080FA0346002B01D000F027F900BF15
:102A400080BD00BF54040020000C005880B500AFCA
:102A5000234B244A1A60224B4FF4E1325A60204B38
:102A600000229A601E4B0022DA601D4B00221A6180
:102A70001B4B0C225A611A4B00229A61184B4FF4DF
:102A80000042DA61164B00221A62154B00225A628C
:102A9000134B00229A62124805F0B0FA0346002B4D
:102AA00001D000F0F3F800210D4807F0FCFA0346CE
:102AB000002B01D000F0EAF80021094807F031FBB3
:102AC0000346002B01D000F0E1F8054807F0B2FA08
:102AD0000346002B01D000F0D9F800BF80BD00BF35
:102AE000240500200038014080B400AF00BFBD467F
:102AF0005DF8047B7047000080B500AF074B084AC3
:102B00001A60064B00225A60044805F065F8034637
:102B1000002B01D000F0BAF800BF80BD780600207D
:102B20000010005880B500AF164B174A1A60154BBD
:102B300000225A60134B0F229A60124B47F6FF7225
:102B4000DA60104B00221A610E4B00229A610D4B85
:102B50000022DA610B4B00225A610A4805F072F834
:102B60000346002B01D000F091F800220021054817
:102B700005F068F90346002B01D000F087F800BF8C
:102B800080BD00BF8C0600200028004080B500AF4B
:102B90000420FFF77BFE0120FFF778FE0220FFF7FD
:102BA00075FE00220F210E2002F00DFC0E2002F017
:102BB00024FC00220F213A2002F005FC3A2002F00A
:102BC0001CFC00BF80BD000080B586B000AF3B1D7F
:102BD00000221A605A609A60DA601A610420FFF7D6
:102BE0006EFE0120FFF76BFE0820FFF768FE022053
:102BF000FFF765FE00222021214803F047F910234A
:102C00007B604FF48813BB600123FB603B1D1946BA
:102C10001C4802F0CBFF03237B604FF48813BB609A
:102C20000123FB603B1D1946174802F0BFFF20231C
:102C30007B600123BB600023FB6002233B613B1DE3
:102C400019460F4802F0B2FF00220021062002F0D0
:102C5000BAFB062002F0D1FB00220021072002F07F
:102C6000B2FB072002F0C9FB002200210A2002F07B
:102C7000AAFB0A2002F0C1FB00BF1837BD4680BD89
:102C80000004004800080048000C004880B400AF71
:102C900000BFBD465DF8047B704780B400AF4FF0C5
:102CA000B043D3F890304FF0B04243F40043C2F841
:102CB000903000BFBD465DF8047B704780B485B09E
:102CC00000AF78604FF0B043DA6C4FF0B0417B68F2
:102CD0001343CB644FF0B043DA6C7B681340FB6066
:102CE000FB6800BF1437BD465DF8047B704780B4B5
:102CF00085B000AF78604FF0B0431A6D4FF0B0412F
:102D00007B6813430B654FF0B0431A6D7B6813402B
:102D1000FB60FB6800BF1437BD465DF8047B70475D
:102D200080B485B000AF78604FF0B0439A6D4FF03B
:102D3000B0417B6813438B654FF0B0439A6D7B685D
:102D40001340FB60FB6800BF1437BD465DF8047B91
:102D5000704780B485B000AF78604FF0B043DA6D53
:102D60004FF0B0417B681343CB654FF0B043DA6D51
:102D70007B681340FB60FB6800BF1437BD465DF8FD
:102D8000047B704780B485B000AF78604FF0B043EB
:102D90001A6E4FF0B0417B6813430B664FF0B0439F
:102DA0001A6E7B681340FB60FB6800BF1437BD469A
:102DB0005DF8047B704780B500AF4FF40020FFF74B
:102DC00096FF002200212E2002F0FDFA2E2002F0B4
:102DD00014FB00BF80BD000080B582B000AF7860FA
:102DE0007B681B680D4A934213D14FF48010FFF7A4
:102DF0007EFF002200212C2002F0E5FA2C2002F0B8
:102E0000FCFA002200212D2002F0DDFA2D2002F034
:102E1000F4FA00BF0837BD4680BD00BF000C005863
:102E200080B5A0B000AF786007F16C0300221A6093
:102E30005A609A60DA601A6107F10C03502200218F
:102E400018460AF0DFFB7B681B68684A93426ED124
:102E50000223FB600023BB6207F10C03184604F059
:102E600034FC0346002B01D0FFF710FF0120FFF7D1
:102E700070FF0120FFF722FF0C23FB6602233B6754
:102E800000237B670323BB670823FB6707F16C0301
:102E900019464FF0904002F089FE554B554A1A6092
:102EA000534B11225A60524B10229A60504B002211
:102EB000DA604F4B80221A614D4B00225A614C4B15
:102EC00000229A614A4B0022DA61494B00221A62C1
:102ED000474802F0D7FA0346002B01D0FFF7D6FE91
:102EE0004FF08853FB6500233B66002387F864306E
:102EF000002387F865300123BB6607F15C031946A0
:102F00003B4802F0F1FD0346002B01D0FFF7BEFE67
:102F10007B68374ADA67364A7B6893620022002171
:102F2000252002F050FA252002F067FA5AE07B686B
:102F30001B68314A934255D10123FB6000237B6219
:102F400007F10C03184604F0C0FB0346002B01D028
:102F5000FFF79CFE4FF48040FFF714FF0220FFF7BD
:102F6000ADFEC023FB6602233B6701237B6703237F
:102F7000BB670723FB6707F16C0319461F4802F084
:102F800015FE1F4B1F4A1A601D4B0F225A601C4B27
:102F900010229A601A4B0022DA60194B80221A61C3
:102FA000174B00225A61164B00229A61144B0022E3
:102FB000DA61134B00221A62114802F063FA0346E9
:102FC000002B01D0FFF762FE7B680D4ADA670C4ADE
:102FD0007B68936200220021242002F0F4F924206F
:102FE00002F00BFA00BF8037BD4680BD0080004074
:102FF000B8050020440002400038014000040048A9
:10300000180600204404024080B596B000AF7860F6
:1030100007F108035022002118460AF0F3FA7B68F2
:103020001B680D4A934213D14FF40073BB604FF0FD
:1030300080533B6407F10803184604F046FB03463F
:10304000002B01D0FFF722FE4FF48020FFF74FFE48
:1030500000BF5837BD4680BD0010005880B596B0FF
:1030600000AF786007F108035022002118460AF0EB
:10307000C9FA7B681B68124A93421DD14FF4006362
:10308000BB604FF48073BB6407F10803184604F07B
:103090001CFB0346002B01D0FFF7F8FDFFF7FDFDF9
:1030A0004FF48060FFF73CFE00220021032002F075
:1030B0008AF9032002F0A1F900BF5837BD4680BD50
:1030C0000028004080B400AF00BFBD465DF8047B1F
:1030D000704780B400AFFEE780B400AFFEE780B475
:1030E00000AFFEE780B400AFFEE780B400AF00BFE2
:1030F000BD465DF8047B704780B400AF00BFBD469D
:103100005DF8047B704780B400AF00BFBD465DF83A
:10311000047B704780B500AF01F0D6FF00BF80BDD3
:1031200080B500AFFEF7EEFF00BF80BD80B500AFF9
:10313000012002F0C3FE00BF80BD80B500AF0220B9
:1031400002F0BCFE00BF80BD80B500AF102002F0D1
:10315000B5FE00BF80BD000080B500AF024802F0A0
:1031600072FB00BF80BD00BFB805002080B500AF76
:10317000024805F05FF800BF80BD00BF24050020B5
:1031800080B500AF024805F055F800BF80BD00BF14
:103190009004002080B500AF01F06EFC00BF80BD40
:1031A00080B500AF01F0A0FC00BF80BD80B500AFCE
:1031B00002F09CFE00BF80BD80B500AF024802F067
:1031C00042FB00BF80BD00BF1806002080B400AFE6
:1031D00001231846BD465DF8047B704780B582B078
:1031E00000AF786039600AF0D5F9034616221A60FC
:1031F0004FF0FF3318460837BD4680BD80B582B01A
:1032000000AF78604FF0FF317868FFF7E7FFFEE727
:1032100080B586B000AFF860B9607A6000237B614A
:103220000AE0AFF300800146BB685A1CBA60CAB21C
:103230001A707B6901337B617A697B689A42F0DBA3
:103240007B6818461837BD4680BD80B483B000AF98
:1032500078604FF0FF3318460C37BD465DF8047BAD
:10326000704780B483B000AF786039603B684FF43A
:1032700000525A60002318460C37BD465DF8047BA7
:10328000704780B483B000AF7860012318460C37D4
:10329000BD465DF8047B704780B485B000AFF86030
:1032A000B9607A60002318461437BD465DF8047B88
:1032B0007047000080B586B000AF7860144A154BA7
:1032C000D31A7B617B693B61134B1B68002B02D1D6
:1032D000114B124A1A60104B1A687B6813443A6902
:1032E0009A4207D20AF056F903460C221A604FF0B0
:1032F000FF3309E0084B1B68FB60074B1A687B68CB
:103300001344054A1360FB6818461837BD4680BD54
:103310000000032000100000B0060020A81A0020C2
:1033200080B400AF034B1B681846BD465DF8047BB4
:10333000704700BF8075FF1F80B400AF034B1B6850
:10334000DBB21846BD465DF8047B70478475FF1FED
:1033500080B400AF034B1B681B0A1846BD465DF8DE
:10336000047B70478475FF1FB0B590B000AF922307
:1033700087F83F30364B3C1D1D460FCD0FC40FCD97
:103380000FC40FCD0FC495E8070003C4228000F0DE
:103390003BFA0121022009F08FFE2E4A0021042071
:1033A00009F0B6FF3B1D184608F026FC034687F8D7
:1033B0003E3097F83E30002B08D097F83E30194643
:1033C00025480AF091FDFFF761FC02E023480AF06E
:1033D0008BFD00F02FFA09F06FFB214B002283F8E0
:1033E00080201F4B4FF6FF72DA821E4A0021012017
:1033F00009F08EFF1C4A0021022009F089FF0620F7
:1034000007F0CCFF034687F83F3097F83F30002B9A
:1034100006D097F83F30194614480AF065FD02E0DF
:1034200013480AF061FD134B00221A70124B01225F
:103430001A7000F041FE0A4B00225A76084B002217
:103440001A76012000F084FB00BF4037BD46B0BDB6
:103450009C06010869B80008C0050108F8050108C4
:10346000BC060020793C0008993D000820060108B0
:10347000640601084407002045070020B0B58EB05F
:1034800004AF7860922387F827307B6801333B6272
:103490003B6A1B78FF2B00F0D780FF2B00F3A9813C
:1034A000052B02D03E2B2ED0A3E13B6A0233BB603A
:1034B000BB68B3F801309AB2B24BDB8A9A4214D19E
:1034C000B04B0022DA82AF4B002283F88020AE4856
:1034D0000AF0A6FDBB68B3F801309BB21946BB6881
:1034E000DB781A46A9480AF0FFFC012000F030FB07
:1034F000A74B01221A70A34BDA8AA54B5A80A44825
:1035000000F0C6FD78E13B6A02337B617B691B7882
:10351000012B2ED0032B40F095807B6901333B615A
:103520009C480AF07DFD3B69B3F803309BB2184616
:10353000FCF7E0FF4FF00002974BFDF745F802461D
:103540000B46104619463B69B3F805309BB21C4642
:103550003B69B3F807309BB21A4613469B001344ED
:103560005B000193009402460B468C480AF0BCFCB9
:1035700069E07B690133FB60FB68B3F801309BB203
:10358000194687480AF0B0FCFB689B7A1846FB682E
:103590005B7A1C46FB681B7A1D46FB68DB791A4682
:1035A000FB689B791946FB685B7902930191009255
:1035B0002B46224601467B480AF096FCFB68B3F88E
:1035C0000B309BB21846FCF795FF4FF00002724B90
:1035D000FCF7FAFF02460B4610461946FB68B3F8A3
:1035E0000D309BB21C46FB68B3F80F309BB21A46F5
:1035F00013469B0013445B000193009402460B4664
:1036000066480AF071FC5F4B93F88030042B04D1BC
:103610005C4B062283F8802003E05A4B052283F896
:103620008020FB68B3F801309AB2564BDA82584BCF
:1036300000221A70534BDA8A554B5A80544800F0D6
:1036400027FD00E000BFD7E03B6A0233FB61FB6966
:103650001B889BB2B3F5006F2ED0B3F5006F00F35B
:10366000CA80042B00F0C380042BC0F2C48040F257
:103670000A42934200F3BF80B3F5806F40F3BB80F2
:10368000A3F20143092B00F2B68001A252F823F005
:103690005D370008D1360008F7370008F737000813
:1036A000F7370008F7370008C1360008F737000879
:1036B00007370008C93600083B4B01221A7097E013
:1036C0003A480AF011FC93E039480AF0A9FC8FE06F
:1036D00038480AF0A5FC2B4BDB8A3749184606F020
:1036E000E3FF034687F8273097F82730002B06D0F2
:1036F00097F82730194631480AF0F6FB78E0304851
:103700000AF08EFC74E02F480AF08AFCFB69023351
:10371000D3F8023019462C480AF0E6FBFB69023365
:10372000D3F80230194629480AF0DEFB154BDB8A34
:103730000121184607F086F9034687F8273097F8E5
:103740002730002B06D097F82730194620480AF07A
:10375000CBFB4DE01F480AF063FC49E0FB690233F4
:10376000BB611D480AF05CFCBB699B78002B37D01D
:10377000BB699B781946BB69DB781A4617480AF083
:10378000B3FB30E0BC060020D8060108040701089E
:1037900040070020400701080000F43F74070108BB
:1037A000E0070108280801084507002078080108FB
:1037B000A0080108D008010807B20100F8080108B4
:1037C0002C0901085409010888090108A409010805
:1037D000BC0901080C0A0108540A0108800A010802
:1037E00008480AF01DFC0A200AF096FB00E000BF22
:1037F00001E000BF00E000BF012318462837BD46A6
:10380000B0BD00BFBC0A010880B582B000AF064B56
:103810003B60064B7B603B461946054808F008F8BC
:1038200000BF0837BD4680BD28000320A13E000828
:10383000693E0008F0B58DB006AF00233B809223AF
:10384000FB75A5480AF0ECFB07F0FCFD0346FB7591
:10385000FB7D002B05D0FB7D1946A0480AF044FBF8
:1038600002E09F480AF0DCFB00F0C2F938613A69D7
:103870000621002007F0A6FC0346FB75FB7D002B0C
:1038800005D0FB7D194697480AF02EFB21E09648AB
:103890000AF0C6FB3B6905331B7818463B690433C5
:1038A0001B781C463B6903331B781D463B6902337A
:1038B0001B781A463B6901331B7819463B691B7814
:1038C0000293019100922B462246014687480AF056
:1038D0000BFB874A1021182007F074FC0346FB7588
:1038E000FB7D002B05D0FB7D194682480AF0FCFACF
:1038F00002E081480AF094FB804A1021082007F07A
:1039000061FC0346FB75FB7D002B05D0FB7D194652
:103910007B480AF0E9FA02E07A480AF081FB1921B3
:10392000012007F0D4FC0346FB75FB7D002B05D07E
:10393000FB7D194674480AF0D7FA02E073480AF092
:103940006FFB07F0E6F80346FB75FB7D002B05D007
:10395000FB7D19466E480AF0C7FA02E06D480AF08E
:103960005FFB0023FB73FB7B43F00103FB73FB7BDB
:10397000002B2BD0684BBB60BA1DF87BBB1C01939E
:103980003B1D009313460922002106F0F4FE034676
:10399000FB75FB7D002B05D0FB7D19465F480AF0C7
:1039A000A3FA02E05E480AF03BFBFC88BD88B868D9
:1039B000FCF7F0FB0346DAB2BB6800931346002223
:1039C0002946204607F0A8FA0346FB75F88879884F
:1039D0003B4600930223002207F09EFA0346FB7544
:1039E00002220221002007F051FD0346FB75FB7DFA
:1039F000002B05D0FB7D19464A480AF075FA02E013
:103A000049480AF00DFB494B01221A70474B1B78BD
:103A1000184606F031FD0346FB75FB7D002B05D0F3
:103A2000FB7D194642480AF05FFA02E041480AF07D
:103A3000F7FA3E4B01225A703C4B08221A713B4B5D
:103A400010225A71394B0022DA70384B3A4A9A6088
:103A5000364B00229A70354B9C78344B5D78334B53
:103A60001B79324A52793149C9783048806800263A
:103A700004960390029101920093002301222946AB
:103A8000204606F04DFD0346FB75FB7D002B05D05F
:103A9000FB7D194629480AF027FA02E028480AF077
:103AA000BFFA224B9B78002B0FD006F083FF034612
:103AB000FB75FB7D002B05D0FB7D194621480AF0E4
:103AC00013FA02E020480AF0ABFA20480AF00CFA98
:103AD00000BF1C37BD46F0BDD40A0108000B010829
:103AE000300B0108500B0108AC0B0108F80B010862
:103AF000241C0108340C01088C0C0108341C01083A
:103B0000D40C01082C0D0108740D0108B40D010836
:103B1000E40D0108180E01083C0E0108480E0108CA
:103B2000780E0108980E0108D40E0108BC0600208A
:103B3000000F0108400F010807B20100700F0108D3
:103B4000BC0F0108F80F01083810010868100108BF
:103B500080B58CB008AF0346FB719223FB731E4AFD
:103B6000FB7982F88030002306930023059300231D
:103B70000493002303930023029300230193002363
:103B800000930023A0228021002006F07BFB034647
:103B9000FB73FB7B002B05D0FB7B19460F480AF01B
:103BA000A3F902E00E480AF03BFA0E49132006F092
:103BB0008FFE0346FB73FB7B002B05D0FB7B194676
:103BC00009480AF091F903E008480AF08DF900BFAE
:103BD0001037BD4680BD00BFBC0600209410010810
:103BE000CC10010810000020F41001082811010871
:103BF00080B586B000AFFFF793FB38613B69B3F146
:103C0000FF3F23D0FFF7A4FBB860FFF795FB786078
:103C10003B69DAB2164B1A703B691B0ADAB2144BD5
:103C20005A707B68DAB2124B9A70BB68DAB2104BEA
:103C3000DA70BB681B0ADAB20D4B1A71BB681B0C39
:103C4000DAB20B4B5A710A4B7B610BE0002007F094
:103C5000ABFFF860FB68002B02D0FB687B6101E0E2
:103C6000044B7B617B6918461837BD4680BD00BF99
:103C7000B40600201C1C010880B582B000AF104BB8
:103C800093F88030052B17D09223FB7106F0D6FAFB
:103C90000346FB710A4B002283F88020FB79002B3E
:103CA00003D008480AF020F906E007480AF01CF99A
:103CB00006480AF019F900BF00BF0837BD4680BDAD
:103CC000BC06002050110108741101087C11010884
:103CD00090B589B002AF0346FB80294B1B78012BBE
:103CE00049D1274B00221A70264B1B780133002B39
:103CF00003F00103B8BF5B42DAB2224B1A70214BCA
:103D00001B78214A9B00134493ED007AF7EE046A76
:103D1000C7EE267AFDEEE77A17EE903AFB82194B52
:103D20001B78194A9B00134493ED007AF7EE046A5E
:103D3000C7EE267AFDEEE77A17EE903ABB820023B3
:103D40007B824FF4FA733B82104BD88A7C8ABA8A02
:103D5000F98A3B8A0093234607F015FC0346FB7360
:103D6000FB7B002B03D00A480AF0BEF803E00948A9
:103D70000AF0BAF800BF00BF1C37BD4690BD00BFB7
:103D8000450700204407002008000020BC06002052
:103D900098110108C011010880B500AF084B93F8D5
:103DA0008030012B0AD0064B93F88030002B05D0D1
:103DB000034BDB8A1846FFF78BFF00BF00BF80BDB7
:103DC000BC06002080B500AF00F012FA00BF80BD35
:103DD00080B582B000AF9223FB7106F00FFE034660
:103DE000FB71FB79002B05D0FB79194606480AF0D8
:103DF0007BF802E005480AF013F905480AF010F9CB
:103E000000BF0837BD4680BDF0110108241201082B
:103E10005012010880B500AF0021022009F09AFA83
:103E200000BF80BD80B582B000AF78600021042063
:103E300009F090FA00BF0837BD4680BD80B582B05A
:103E400000AF7860012009F0F1FA00BF0837BD46E5
:103E500080BD80B582B000AF7860012009F006FB1C
:103E600000BF0837BD4680BD80B584B000AF786024
:103E70007B68FB60FB685B680833184608F06EFEE1
:103E80000346FB72FB7A002B03D0FB6801221A70F9
:103E900003E0FB6800221A7000BF1037BD4680BDEA
:103EA00080B584B000AF0346FB71FB79002B02D0D4
:103EB000012B06D00BE03F23FB60F86809F076FA8F
:103EC00005E03F23FB60F86809F090FA00BF00BFEF
:103ED0001037BD4680BD000080B582B000AF78606D
:103EE0007B681B78072B00F2AE8001A252F823F00A
:103EF000113F0008193F0008653F0008733F0008A4
:103F0000813F00082B400008474000083940000866
:103F100050480AF085F899E04F480AF081F87B682C
:103F20005B681B7819467B685B6801331B781A460F
:103F30004A4809F0D9FF7B685B6801331B78012B85
:103F400004D101222021464801F0A0FF7B685B6874
:103F500001331B78002B78D100222021404801F04A
:103F600095FF72E03F480AF05BF83F4B01221A7060
:103F70006CE03E480AF054F83B4B00221A7065E0B2
:103F80003B480AF04DF8384B01225A70394B1B88D8
:103F9000432B1CD9374B1B88492B18D8354B1B8812
:103FA00001339AB2334B1A80334B1B78002B07D165
:103FB000324B4FF480721A802F4B01221A700DE0A1
:103FC0002E4B1B8801339AB22C4B1A8006E0294BEA
:103FD00044221A80294B4FF480721A80254B1B888B
:103FE0001946264B1B881A46254809F07DFF254BAC
:103FF00009221A701F4B1B88DAB2224B5A701D4BD4
:104000001B881B0A9BB2DAB21E4B9A701B4B1B8893
:10401000DAB21C4BDA70194B1B881B0A9BB2DAB25E
:10402000184B1A7100F0D0F810E0174809F0F8FFAB
:104030000D4B00225A7009E0144809F0F1FF0E4BB5
:1040400000221A7002E000BF00E000BF00BF083786
:10405000BD4680BD6C120108A4120108D0120108EF
:1040600000040048F012010848070020201301084E
:1040700050130108400900202300002042090020BD
:104080009813010848080020B81301080414010817
:1040900080B483B000AF78607B681B78002B02D0BF
:1040A000012B02D002E000BF00E000BF00BF0C37D0
:1040B000BD465DF8047B704780B582B000AF022337
:1040C000FB71FB1D1946032000F004FB00F016F8FD
:1040D00000F066F8074A0021082009F019F9064B9C
:1040E00000221A70044B00229A7000BF0837BD46A8
:1040F00080BD00BF254100084807002080B582B080
:1041000000AF0023FB71FB79002B04D00449012090
:1041100000F0E0FA00BF00BF0837BD4680BD00BF19
:104120005007002080B582B000AF0023FB71184B10
:104130001B78012B1CD10123FB71154B9B78002BA5
:1041400009D1134B01229A70124B00221A70114BA5
:1041500001225A7008E00E4B00229A700D4B00228B
:104160001A700C4B00225A700B4809F059FF02E0FC
:104170000A4809F055FFFB79002B04D005490120BE
:1041800000F0A8FA00BF00BF0837BD4680BD00BFE1
:10419000480700204808002044140108841401083E
:1041A00080B582B000AF0023FB71FB79002B04D0F7
:1041B0000449022000F08EFA00BF00BF0837BD4658
:1041C00080BD00BF5007002080B582B000AF002343
:1041D000FB71FB79002B04D00449022000F07AFA2D
:1041E00000BF00BF0837BD4680BD00BF48080020A3
:1041F00080B500AF0021082009F0ACF800BF80BDF9
:1042000080B58EB002AF7860002387F82F307B68CE
:104210000133BB62BB6A1B78FF2B40F0C380BB6AD3
:1042200002337B627B6A1B889BB240F61442934246
:1042300000F0B08040F61442934200F3AD8040F6A7
:104240000142934204D040F61342934266D0A3E069
:104250007B6A0233FB61FB695B889BB21A46554B54
:104260009B8802339A4219D1012387F82F30FB69CA
:104270001B7A002B02D0012B08D04EE003233B73A6
:1042800007F10C031846FFF727FE46E002233B73B5
:1042900007F10C031846FFF71FFE3EE0FB695B8841
:1042A0009BB21A46434B1B8902339A4219D1012310
:1042B00087F82F30FB691B7A002B02D0012B08D026
:1042C0002BE005233B7307F10C031846FFF704FEB0
:1042D00023E004233B7307F10C031846FFF7FCFDB2
:1042E0001BE0FB695B889BB21A46324B5B8801334B
:1042F0009A4253D1012387F82F3001233B73FB6986
:10430000DB889BB2DBB23B75FB6908333B6107F18D
:104310000C031846FFF7E0FD40E03FE07B6A023304
:104320003B623B6A5B889BB21A46224B9B890133F6
:104330009A4235D1012387F82F303B6A5B79012BF4
:1043400017D13B6A1B8898B23B6A5B8899B23B6A7B
:104350001B793A6A0532019200930023002206F08D
:1043600084FE07233B7307F10C031846FFF7B4FDE7
:1043700016E03B6A1B8898B23B6A5B8899B23B6A3D
:104380001B793A6A0532019200938023012206F0DC
:104390006CFE05E000BF06E000BF04E000BF02E0E5
:1043A00000BF00E000BF97F82F3018463037BD46F9
:1043B00080BD00BF4409002080B58CB006AF9223B9
:1043C000FB75A94808F0B0FB0623BB758F233B7132
:1043D000E5237B71B323BB71D523FB712E233B7285
:1043E0007F237B724A23BB729823FB722A233B7381
:1043F00048237B737A23BB73CC23FB7340233B742A
:10440000FE237B740023BB740023FB74BB7D391D2A
:10441000964A00920122022006F0A0FB0346FB759B
:10442000FB7D002B05D0FB7D1946914809F05CFD12
:1044300002E0904809F058FD19233B71ED237B7190
:104440008223BB71AE23FB71ED233B7221237B7270
:104450004C23BB729D23FB7241233B7345237B732B
:104460002223BB738E23FB7341233B74FE237B7497
:104470000023BB740023FB747C4B18887E4B1B7895
:104480009BB23A1D7D4905910121049110210391B0
:10449000012102910021019106210091022106F0E3
:1044A00033FC0346FB75FB7D002B05D0FB7D1946D5
:1044B000734809F019FD02E0724809F015FD19234F
:1044C0003B71ED237B718223BB71AE23FB71ED2326
:1044D0003B7221237B724C23BB729D23FB724123D1
:1044E0003B7345237B732223BB738E23FB734223D1
:1044F0003B74FE237B740023BB740023FB745B4B73
:104500001888614B1B789BB23A1D604905910121C7
:1045100004911021039101210291002101911021A8
:104520000091022106F0F0FB0346FB75FB7D002B9A
:1045300005D0FB7D1946564809F0D6FC02E05548E7
:1045400009F0D2FC0823BB7541F60D03BB80BB7D8F
:10455000391D514A00920122012006F0FFFA03465C
:10456000FB75FB7D002B05D0FB7D19464B4809F000
:10457000BBFC02E04A4809F0B7FC42F63723BB8097
:104580003A4BD888474B1B789BB23A1D4649059158
:104590000121049110210391002102910021019138
:1045A00010210091012106F0AFFB0346FB75FB7D56
:1045B000002B05D0FB7D19463C4809F095FC02E034
:1045C0003B4809F091FC42F63823BB80274BD88842
:1045D000384B1B789BB23A1D374905910021049155
:1045E00010210391002102910021019102210091EB
:1045F000012106F089FB0346FB75FB7D002B05D0EE
:10460000FB7D19462D4809F06FFC02E02C4809F0AB
:104610006BFC42F63923BB80144BD888294B1B789E
:104620009BB23A1D28490591002104911021039164
:10463000022102910021019108210091012106F03F
:1046400063FB0346FB75FB7D002B05D0FB7D194604
:104650001E4809F049FC03E01D4809F045FC00BF75
:104660001837BD4680BD00BF014200084409002044
:10467000CC1401081415010824000020460900206C
:10468000481501088C150108250000204809002064
:10469000C0150108081601084A0900204016010843
:1046A00088160108260000204C090020BC160108CD
:1046B00000170108270000204E09002034170108C8
:1046C0007C1701082800002050090020B0170108BD
:1046D000F817010880B586B002AF03463960FB7158
:1046E0009223FB73FB79042B00F2958001A252F810
:1046F00023F000BF094700083F470008754700083E
:10470000AB470008E1470008464B1888454B5988DD
:10471000454B1A783B6800931346002206F0FCFBD9
:104720000346FB73FB7B002B05D0FB7B19463F4800
:1047300009F0DAFB70E03E4809F0D6FB6CE0394B3B
:104740001888384B99883B4B1A783B68009313467E
:10475000002206F0E1FB0346FB73FB7B002B05D038
:10476000FB7B1946344809F0BFFB55E0334809F09C
:10477000BBFB51E02B4BD8882A4B1989304B1A7858
:104780003B6800931346002206F0C6FB0346FB730A
:10479000FB7B002B05D0FB7B19462A4809F0A4FBC4
:1047A0003AE0294809F0A0FB36E01E4BD8881D4BA3
:1047B0005989264B1A783B6800931346002206F06D
:1047C000ABFB0346FB73FB7B002B05D0FB7B194641
:1047D0001F4809F089FB1FE01E4809F085FB1BE01C
:1047E000104BD8880F4B99891B4B1A783B68009364
:1047F0001346002206F090FB0346FB73FB7B002B65
:1048000005D0FB7B1946154809F06EFB04E01448FF
:1048100009F06AFB00E000BFFB7B18461037BD467D
:1048200080BD00BF4409002024000020301801088A
:104830007818010825000020B0180108FC180108AC
:1048400026000020381901088019010827000020DF
:10485000B8190108001A010828000020381A0108B8
:10486000841A010880B400AF054BDB68044A43F4A6
:104870000043D36000BFBD465DF8047B704700BFB6
:104880000004005880B483B000AF7860064BD3F8C2
:10489000D42005497B681343C1F8D43000BF0C37DE
:1048A000BD465DF8047B70470008005880B483B0B3
:1048B00000AF7860054B1A6A04497B6813430B62AA
:1048C00000BF0C37BD465DF8047B704700080058F8
:1048D00080B485B000AF78604FF0B0431A6D4FF0F0
:1048E000B0417B6813430B654FF0B0431A6D7B6892
:1048F0001340FB60FB6800BF1437BD465DF8047BC6
:10490000704780B485B000AF78604FF0B043D3F803
:1049100050214FF0B0417B681343C1F850314FF044
:10492000B043D3F850217B681340FB60FB6800BFA5
:104930001437BD465DF8047B704780B483B000AF88
:1049400078607B681B6843F480327B681A6000BF24
:104950000C37BD465DF8047B704780B483B000AF70
:1049600078607B681B6843F001027B681A6000BFB7
:104970000C37BD465DF8047B704780B483B000AF50
:10498000786039607B685A683B681B04DB431A40D7
:104990007B685A6000BF0C37BD465DF8047B7047EA
:1049A00080B483B000AF786039607B685A683B6838
:1049B0001B041A437B685A6000BF0C37BD465DF884
:1049C000047B704780B483B000AF786039607B6847
:1049D0005A683B68DB431A407B685A6000BF0C375B
:1049E000BD465DF8047B704780B483B000AF78604B
:1049F00039607B683A689A6000BF0C37BD465DF845
:104A0000047B704780B483B000AF786039603B6846
:104A10001A047B689A6000BF0C37BD465DF8047BC2
:104A2000704780B483B000AF786039607B68DA6823
:104A30003B6813403A689A4201D1012300E0002309
:104A400018460C37BD465DF8047B704780B483B0D0
:104A500000AF786039607B68DA693B6813403A6878
:104A60009A4201D1012300E0002318460C37BD46CD
:104A70005DF8047B7047000080B500AF0221194843
:104A8000FFF7E4FF0346002B09D0164B5B68DB43BE
:104A900003F00203002B02D000F0DAF81FE001213E
:104AA0001048FFF7D3FF0346002B08D00D4B5B687F
:104AB00003F00103002B02D100F08EF80FE0082173
:104AC0000848FFF7C3FF0346002B09D0054B5B687E
:104AD000DB4303F00803002B02D000F005F900BF10
:104AE00000BF80BD000C005880B500AF02211A48FD
:104AF000FFF797FF0346002B09D1174B5B68DB4399
:104B000003F40033002B02D000F096F820E00821D7
:104B10001148FFF786FF0346002B09D10E4B5B6857
:104B2000DB4303F40023002B02D000F0BFF80FE0BA
:104B300020210948FFF775FF0346002B09D1064BDA
:104B40005B68DB4303F40013002B02D000F050F845
:104B500000BF00BF80BD00BF000C005880B500AF93
:104B60004FF48010FFF7CDFE4FF40070FFF79EFE6C
:104B70004FF40070FFF786FE40BF20BFFFF772FEC4
:104B800000BF80BD80B500AF4FF48010FFF7A0FEDE
:104B90000648FFF7E2FE0548FFF7CFFE2C2000F0A5
:104BA0002CFC2D2000F029FC00BF80BD000C00581B
:104BB00080B500AF01210248FFF704FF00BF80BDB0
:104BC000000C005880B500AF01210248FFF71AFF22
:104BD00000BF80BD000C005880B500AF08F0A2F8FF
:104BE00001210248FFF700FF00BF80BD000C005804
:104BF00080B500AF20210348FFF7D2FE08F0C2F8CD
:104C000000BF80BD000C005880B500AF02210248F3
:104C1000FFF7D8FE00BF80BD000C005880B500AF84
:104C200002210448FFF7EEFE02210248FFF7A5FE2D
:104C300000BF80BD000C005880B500AF02210348C2
:104C4000FFF7AEFE08F0EEF800BF80BD000C005884
:104C500080B500AF08F0FCF802210248FFF7C4FE5F
:104C600000BF80BD000C005880B582B000AF7860F6
:104C700008210C48FFF7D5FE0346002B07D00A4A4F
:104C80007B68136008210748FFF777FE06E07B6822
:104C9000984708210348FFF7B5FE00BF0837BD4617
:104CA00080BD00BF000C00585409002080B500AF43
:104CB00008210648FFF774FE054B1B68984708213A
:104CC0000248FFF79FFE00BF80BD00BF000C0058E8
:104CD0005409002080B500AF08210248FFF772FE9A
:104CE00000BF80BD000C005880B500AF08F058F937
:104CF00008210248FFF778FE00BF80BD000C005875
:104D0000D458C4500433C4188C42F9D3704703609C
:104D100004308842FBD370470C48854600F004F904
:104D20000B480C490C4A0023FFF7EDFF0B480C49D8
:104D30000023FFF7EEFF0B480B490023FFF7E9FFC5
:104D400008F02EFCFDF7D4FDFEE700000000032074
:104D500008000020280200201C2101087402002005
:104D6000A81A0020E4010320670A0320FEE780B4AC
:104D700085B000AF78604FF0B043DA6C4FF0B041CF
:104D80007B681343CB644FF0B043DA6C7B6813400D
:104D9000FB60FB6800BF1437BD465DF8047B7047BD
:104DA00080B588B000AF0346FB7107F10C03002209
:104DB0001A605A609A60DA601A610220FFF7D7FF22
:104DC000FB79124A32F81330FB6001233B61002368
:104DD0007B610223BB61FB790D4A52F8233007F156
:104DE0000C021146184600F0E1FEFB79084A52F821
:104DF0002300FB79054A32F813300022194601F0EE
:104E000045F800BF2037BD4680BD00BF441C0108E7
:104E10002C00002080B582B000AF0346FB71FB7907
:104E2000074A52F82300FB79064A32F81330012270
:104E3000194601F02BF800BF0837BD4680BD00BF02
:104E40002C000020441C010880B588B000AF034648
:104E50000A46FB711346BB7107F10C0300221A606E
:104E60005A609A60DA601A61FB79002B03D1042042
:104E7000FFF77DFF0CE0FB79012B03D10820FFF742
:104E800076FF05E0FB79022B02D10820FFF76FFFC8
:104E9000BB79002B17D1FB79204A32F81330FB6025
:104EA00000233B6101237B610223BB61FB791C4A28
:104EB00052F8233007F10C021146184600F076FE36
:104EC0000120FCF7BBFCBB79012B23D1FB79134AF2
:104ED00032F81330FB6001237B614FF404133B6114
:104EE000FB790F4A52F8233007F10C02114618469D
:104EF00000F05CFEFB790B4AD35C5BB200220F2111
:104F0000184600F060FAFB79064AD35C5BB218469B
:104F100000F073FA00BF2037BD4680BD4C1C01086D
:104F200038000020541C010880B400AF264B00223A
:104F30009A60254BD3F88830234A43F47003C2F8B3
:104F400088304FF0B0431B684FF0B04243F001038C
:104F500013604FF0B0434FF4E0229A604FF0B0433B
:104F60001A684FF0B041194B13400B604FF0B0433B
:104F7000D3F894304FF0B04223F00503C2F89430D8
:104F80004FF0B043D3F898304FF0B04223F0010314
:104F9000C2F898304FF0B0430D4ADA604FF0B0439A
:104FA0000B4A1A614FF0B0431B684FF0B04223F434
:104FB000802313604FF0B04300229A6100BFBD46CA
:104FC0005DF8047B704700BF00ED00E0FBFEF6FAE1
:104FD0000010042280B400AF054B5B68044A43F024
:104FE0000103536000BFBD465DF8047B704700BFFE
:104FF000002004E080B400AF054B5B68044A43F036
:105000000203536000BFBD465DF8047B704700BFDC
:10501000002004E080B582B000AF0023FB710C4B90
:105020001B680B4A43F480731360032000F0C0F93F
:10503000002000F00FF80346002B02D00123FB7183
:1050400001E0FDF7B8FEFB7918460837BD4680BD84
:105050000040005880B584B000AF78600023FB7337
:10506000174B1B78002B24D002F09EF80246144BFD
:105070001B7819464FF47A73B3FBF1F3B2FBF3F3E9
:10508000184600F0D6F90346002B0FD17B680F2B92
:1050900009D8002279684FF0FF3000F094F9094AEE
:1050A0007B68136007E00123FB7304E00123FB73BB
:1050B00001E00123FB73FB7B18461037BD4680BD22
:1050C0004C0000204800002080B400AF064B1B7845
:1050D0001A46064B1B681344044A136000BFBD46C2
:1050E0005DF8047B704700BF4C0000205809002089
:1050F00080B400AF034B1B681846BD465DF8047BC7
:10510000704700BF5809002080B400AF034B1B68F4
:105110001846BD465DF8047B704700BF480000207C
:1051200080B400AF034B1B781846BD465DF8047B86
:10513000704700BF4C00002080B500AFFFF74AFF6A
:1051400000BF80BD80B500AFFFF754FF00BF80BD3A
:1051500080B485B000AF78607B6803F00703FB6024
:105160000C4BDB68BB60BA684FF6FF031340BB60B3
:10517000FB681A02BB68134343F0BF6343F4003378
:10518000BB60044ABB68D36000BF1437BD465DF8FE
:10519000047B704700ED00E080B400AF044BDB6897
:1051A0001B0A03F007031846BD465DF8047B7047F1
:1051B00000ED00E080B483B000AF0346FB7197F9C7
:1051C0000730002B0BDBFB7903F01F02074997F92F
:1051D00007305B09012000FA02F241F8232000BFEA
:1051E0000C37BD465DF8047B704700BF00E100E06E
:1051F00080B483B000AF0346FB7197F90730002BF2
:1052000012DBFB7903F01F020A4997F907305B09AB
:10521000012000FA02F2203341F82320BFF34F8F20
:1052200000BFBFF36F8F00BF00BF0C37BD465DF8F6
:10523000047B704700E100E080B483B000AF034618
:10524000FB7197F90730002B0CDBFB7903F01F0291
:10525000074997F907305B09012000FA02F2403351
:1052600041F8232000BF0C37BD465DF8047B704732
:1052700000E100E080B483B000AF0346FB7197F912
:105280000730002B0CDBFB7903F01F02074997F96D
:1052900007305B09012000FA02F2603341F8232055
:1052A00000BF0C37BD465DF8047B704700E100E0AD
:1052B00080B483B000AF03463960FB7197F90730C3
:1052C000002B0ADB3B68DAB20C4997F90730120170
:1052D000D2B20B4483F800230AE03B68DAB20849F3
:1052E000FB7903F00F03043B1201D2B20B441A7690
:1052F00000BF0C37BD465DF8047B704700E100E05D
:1053000000ED00E080B489B000AFF860B9607A6069
:10531000FB6803F00703FB61FB69C3F10703042B80
:1053200028BF0423BB61FB690433062B02D9FB6948
:10533000033B00E000237B614FF0FF32BB6902FAC0
:1053400003F3DA43BB681A407B699A404FF0FF31A0
:105350007B6901FA03F3D9437B680B40134318467A
:105360002437BD465DF8047B7047000080B582B0ED
:1053700000AF78607B68013BB3F1807F01D30123EC
:105380000FE00A4A7B68013B53600F214FF0FF306A
:10539000FFF78EFF054B00229A60044B07221A602C
:1053A000002318460837BD4680BD00BF10E000E06E
:1053B00080B582B000AF78607868FFF7C9FE00BFA3
:1053C0000837BD4680BD80B586B000AF0346B960E2
:1053D0007A60FB73FFF7E0FE78617A68B9687869F4
:1053E000FFF790FF024697F90F3011461846FFF776
:1053F0005FFF00BF1837BD4680BD80B582B000AFEB
:105400000346FB7197F907301846FFF7D3FE00BF3C
:105410000837BD4680BD80B582B000AF0346FB7142
:1054200097F907301846FFF7E3FE00BF0837BD467F
:1054300080BD80B582B000AF78607868FFF796FFD6
:10544000034618460837BD4680BD80B582B000AF20
:105450000346FB7197F907301846FFF7EDFE00BFD2
:105460000837BD4680BD80B582B000AF0346FB71F2
:1054700097F907301846FFF7FDFE00BF0837BD4615
:1054800080BD000080B584B000AF78607B68002BE1
:1054900001D101238EE07B681B681A46474B9A4274
:1054A0000FD87B681B681A46454B1344454AA2FB3C
:1054B00003231B099A007B685A647B68424A1A647A
:1054C0000EE07B681B681A46404B13443D4AA2FB22
:1054D00003231B099A007B685A647B683C4A1A6460
:1054E0007B68022283F825207B681B681B68FB60B1
:1054F000FB6823F4FF4323F07003FB607B689A682A
:105500007B68DB681A437B681B691A437B685B69AD
:105510001A437B689B691A437B68DB691A437B6883
:105520001B6A1343FA681343FB607B681B68FA68C5
:105530001A60786800F074FA7B689B68B3F5804F56
:1055400002D17B6800225A607B685A687B689B6C3A
:1055500002F03F021A607B68DB6C7A68126D5A6059
:105560007B685B68002B10D07B685B68042B0CD8D1
:10557000786800F093FA7B685B6D00221A607B68A4
:105580009B6D7A68D26D5A6008E07B6800225A658C
:105590007B6800229A657B680022DA657B680022BE
:1055A000DA637B68012283F825207B68002283F878
:1055B0002420002318461037BD4680BD0704024052
:1055C000F8FFFDBFCDCCCCCC00000240F8FBFDBF06
:1055D0000004024080B586B000AFF860B9607A6020
:1055E0003B600023FB75FB6893F82430012B01D14D
:1055F000022366E0FB68012283F82420FB6893F80D
:105600002530DBB2012B55D1FB68022283F825201F
:10561000FB680022DA63FB681B681A68FB681B687A
:1056200022F001021A603B687A68B968F86800F0F5
:10563000B9F9FB681B6B002B08D0FB681B681A6864
:10564000FB681B6842F00E021A600FE0FB681B68E3
:105650001A68FB681B6822F004021A60FB681B686A
:105660001A68FB681B6842F00A021A60FB689B6CB0
:105670001B6803F48033002B07D0FB689B6C1A680F
:10568000FB689B6C42F480721A60FB685B6D002BB8
:1056900007D0FB685B6D1A68FB685B6D42F4807233
:1056A0001A60FB681B681A68FB681B6842F00102FD
:1056B0001A6005E0FB68002283F824200223FB75B2
:1056C000FB7D18461837BD4680BD80B483B000AF5F
:1056D00078607B68002B01D101234FE07B6893F851
:1056E0002530DBB2022B08D07B680422DA637B68AA
:1056F000002283F82420012340E07B681B681A689D
:105700007B681B6822F00E021A607B689B6C1A682B
:105710007B689B6C22F480721A607B681B681A6835
:105720007B681B6822F001021A607B685B6C03F0E7
:105730001C027B681B6C012101FA02F25A607B6833
:10574000DB6C7A68126D5A607B685B6D002B0CD045
:105750007B685B6D1A687B685B6D22F480721A60EF
:105760007B689B6D7A68D26D5A607B68012283F8F2
:1057700025207B68002283F82420002318460C375C
:10578000BD465DF8047B704780B584B000AF78609B
:105790000023FB737B6893F82530DBB2022B05D026
:1057A0007B680422DA630123FB7347E07B681B6894
:1057B0001A687B681B6822F00E021A607B681B68FF
:1057C0001A687B681B6822F001021A607B689B6C78
:1057D0001A687B689B6C22F480721A607B685B6C31
:1057E00003F01C027B681B6C012101FA02F25A6073
:1057F0007B68DB6C7A68126D5A607B685B6D002B8E
:105800000CD07B685B6D1A687B685B6D22F48072DC
:105810001A607B689B6D7A68D26D5A607B68012242
:1058200083F825207B68002283F824207B689B6B0B
:10583000002B03D07B689B6B78689847FB7B1846EE
:105840001037BD4680BD80B584B000AF78607B68FE
:105850001B6C1B68FB607B681B681B68BB607B68FC
:105860005B6C03F01C0304229A40FB681340002B7E
:1058700026D0BB6803F00403002B21D07B681B6893
:105880001B6803F02003002B07D17B681B681A6894
:105890007B681B6822F004021A607B685B6C03F073
:1058A0001C027B681B6C042101FA02F25A607B68BF
:1058B0001B6B002B71D07B681B6B786898476CE082
:1058C0007B685B6C03F01C0302229A40FB68134068
:1058D000002B2ED0BB6803F00203002B29D07B687D
:1058E0001B681B6803F02003002B0BD17B681B682F
:1058F0001A687B681B6822F00A021A607B68012222
:1059000083F825207B685B6C03F01C027B681B6CB2
:10591000022101FA02F25A607B68002283F82420F7
:105920007B68DB6A002B38D07B68DB6A7868984735
:1059300033E07B685B6C03F01C0308229A40FB6831
:105940001340002B2AD0BB6803F00803002B25D09E
:105950007B681B681A687B681B6822F00E021A605D
:105960007B685B6C03F01C027B681B6C012101FAF5
:1059700002F25A607B680122DA637B68012283F8B5
:1059800025207B68002283F824207B685B6B002B3A
:1059900004D07B685B6B7868984700BF00BF103706
:1059A000BD4680BD80B485B000AFF860B9607A6054
:1059B0003B60FB68DB6CFA68126D5A60FB685B6DDC
:1059C000002B04D0FB689B6DFA68D26D5A60FB68AF
:1059D0005B6C03F01C02FB681B6C012101FA02F2F4
:1059E0005A60FB681B683A685A60FB689B68102B1A
:1059F00008D1FB681B687A689A60FB681B68BA6804
:105A0000DA6007E0FB681B68BA689A60FB681B688D
:105A10007A68DA6000BF1437BD465DF8047B7047D2
:105A200080B485B000AF78607B681B681A46174B5E
:105A30009A420AD87B685B6C9B089B0003F1804309
:105A400003F502337A68936407E07B685B6C9B081C
:105A50009A000F4B13447A6893647B681B68DBB22F
:105A6000083B0C4AA2FB03231B09FB607B680A4A24
:105A7000DA64FB6803F01F0301229A407B681A6511
:105A800000BF1437BD465DF8047B70470704024031
:105A90001C080240CDCCCCCC8008024080B485B03C
:105AA00000AF78607B685B6803F03F03FB60FA68D7
:105AB0000B4B13449B001A467B685A657B68094A66
:105AC0009A65FB68013B03F0030301229A407B685F
:105AD000DA6500BF1437BD465DF8047B704700BF30
